{
  "transactions": [
    {
      "hash": "0xafd392a305334b27cb21ed89a207fd49722a02a28470abe49ca19046e5e1d30b",
      "transactionType": "CREATE",
      "contractName": "CustomReward",
      "contractAddress": "0x131dbbdf0d4397d71b479d5c10c49886db287dec",
      "function": null,
      "arguments": null,
      "transaction": {
        "from": "0x993461bbf7e553eb5bd1f5248a72b524c4a3b15d",
        "gas": "0x1ded7",
        "value": "0x0",
        "input": "0x6080806040523460145760bd90816100198239f35b5f80fdfe60808060405260043610156011575f80fd5b5f3560e01c90816366e305fd146053575063b5e3c3b314602f575f80fd5b34604f576080366003190112604f5760446072565b5060206040515f8152f35b5f80fd5b34604f576020366003190112604f57602090606b6072565b5060018152f35b600435906001600160a01b0382168203604f5756fea26469706673582212207f0cda2ce8c02d4f2e5c749b3e485bedf62d4793ec0757ac3a739c61d59a076c64736f6c63430008180033",
        "nonce": "0x59",
        "chainId": "0xa4ec"
      },
      "additionalContracts": [],
      "isFixedGasLimit": false
    },
    {
      "hash": "0xd41b38eeb5220fe270201b7a7d1ac0d163f9c4f50de845095187d6580baef97d",
      "transactionType": "CALL",
      "contractName": null,
      "contractAddress": "0x6bc0db897d678bf5c49e8cd6639d4bd7e4e93763",
      "function": "createReward(uint256,uint256,uint256,uint256,address,address)",
      "arguments": [
        "37",
        "0",
        "2000000000000000000",
        "0",
        "0x62B8B11039FcfE5aB0C56E502b1C372A3d2a9c7A",
        "0x131DBbDF0D4397d71b479D5C10C49886Db287dEc"
      ],
      "transaction": {
        "from": "0x993461bbf7e553eb5bd1f5248a72b524c4a3b15d",
        "to": "0x6bc0db897d678bf5c49e8cd6639d4bd7e4e93763",
        "gas": "0x1a2f02",
        "value": "0x0",
        "input": "0x725ee49e000000000000000000000000000000000000000000000000000000000000002500000000000000000000000000000000000000000000000000000000000000000000000000000000000000000000000000000000000000001bc16d674ec80000000000000000000000000000000000000000000000000000000000000000000000000000000000000000000062b8b11039fcfe5ab0c56e502b1c372a3d2a9c7a000000000000000000000000131dbbdf0d4397d71b479d5c10c49886db287dec",
        "nonce": "0x5a",
        "chainId": "0xa4ec"
      },
      "additionalContracts": [
        {
          "transactionType": "CREATE",
          "address": "0x89c1ec26c2025bcb197a0fbda36a5f213e797f0e",
          "initCode": "0x610120346101cd57601f6110a538819003918201601f19168301916001600160401b038311848410176101d15780849260409485528339610100938491810103126101cd5761004d816101e5565b60208201518383015160608401519160808501519361006e60a087016101e5565b9461008760e061008060c08a016101e5565b98016101e5565b6001600160a01b0397909190881680156101b6579789969381969360c09996937f293c0278ff20b67408bf7a8e537f517e4acd426e297424345e0dac1bf3b853e59b845f549b828d60018060a01b031916175f55519b167f8be0079c531659141344cd1fd0a4f28419497f9722a3daafe3b4186f6b6457e05f80a3826080528460a05286600155600255868a523360e0528c5216865260208601528785015260608401521660808201523360a0820152a151610eab91826101fa833960805182818161078f01528181610bb50152610ca8015260a0518281816105fc0152818161069501528181610b880152610c69015260c0518281816101c40152818161048b015281816108730152610916015260e051826102ba0152518181816103fa015281816106ee0152610cec0152f35b8951631e4fbdf760e01b81525f6004820152602490fd5b5f80fd5b634e487b7160e01b5f52604160045260245ffd5b51906001600160a01b03821682036101cd5756fe6080604081815260049182361015610015575f80fd5b5f3560e01c90816310fe9ae8146108615750806317261921146107be5780633bce4ceb1461077b5780633c1bfa051461073b5780633ca690881461071d5780633cb6d466146106da5780633ccfd60b146106b857806344ee2d851461067e5780634e71d92d146103bb57806363b85707146103825780636900d9da14610364578063715018a614610320578063804b4938146102e957806388cc58e4146102a65780638da5cb5b1461027f5780639b2675f51461025f578063ca1d209d14610187578063df2842c0146101675763f2fde38b146100f0575f80fd5b34610163576020366003190112610163576001600160a01b0382358181169391929084900361016357610121610e0a565b831561014d5750505f548260018060a01b03198216175f55165f80516020610e368339815191525f80a3005b905f6024925191631e4fbdf760e01b8352820152fd5b5f80fd5b823461016357602036600319011261016357610181610e0a565b35600255005b5090346101635760203660031901126101635781516323b872dd60e01b81523381830152306024820152903560448201819052906020816064815f7f00000000000000000000000000000000000000000000000000000000000000006001600160a01b03165af180156102555792602092917f8e5972bbf4ac8ca87b99fe9004c16981a58dbf459996e8ec9c327efec15f0e2294610228575b5051908152a1005b61024790843d861161024e575b61023f81836108a2565b8101906108d9565b505f610220565b503d610235565b83513d5f823e3d90fd5b823461016357602036600319011261016357610279610e0a565b35600155005b5034610163575f366003190112610163575f5490516001600160a01b039091168152602090f35b5034610163575f36600319011261016357517f00000000000000000000000000000000000000000000000000000000000000006001600160a01b03168152602090f35b5090346101635760203660031901126101635735906001600160a01b038216820361016357610319602092610c57565b9051908152f35b34610163575f36600319011261016357610338610e0a565b5f80546001600160a01b0319811682556001600160a01b03165f80516020610e368339815191528280a3005b5034610163575f366003190112610163576020906002549051908152f35b5090346101635760203660031901126101635735906001600160a01b0382168203610163576103b2602092610b6f565b90519015158152f35b509034610163575f36600319011261016357335f5260206003815260ff835f205416610667576103ea33610b6f565b15610650576001600160a01b03917f0000000000000000000000000000000000000000000000000000000000000000831682816105b1575b5050335f90815260038352849020805460ff191660011790558054600160401b81101561059e576001810180835581101561058b575f8281528390200180546001600160a01b0319163390811790915561047b90610c57565b845163095ea7b360e01b815290937f0000000000000000000000000000000000000000000000000000000000000000168382806104bb88338884016108f1565b03815f855af1908115610581576104f29385938793610564575b505f885180968195829463a9059cbb60e01b8452339084016108f1565b03925af1801561055a57917f9530ea26ca3d40933be084314076599d86fe7e09cea00b9fe717903fe85fd1fb9491610537949361053c575b50505191829133836108f1565b0390a1005b8161055292903d1061024e5761023f81836108a2565b505f8061052a565b84513d5f823e3d90fd5b61057a90853d871161024e5761023f81836108a2565b505f6104d5565b86513d5f823e3d90fd5b603282634e487b7160e01b5f525260245ffd5b604182634e487b7160e01b5f525260245ffd5b85516366e305fd60e01b8152338482015291829060249082905afa908115610646575f91610629575b50156105e7575f82610422565b8351636f90153b60e01b8152908190610625907f000000000000000000000000000000000000000000000000000000000000000090339084016108f1565b0390fd5b6106409150833d851161024e5761023f81836108a2565b5f6105da565b85513d5f823e3d90fd5b506024915190634786797b60e01b82523390820152fd5b506024915190631561877960e31b82523390820152fd5b5034610163575f36600319011261016357602090517f00000000000000000000000000000000000000000000000000000000000000008152f35b34610163575f366003190112610163576106d0610e0a565b6106d861090c565b005b5034610163575f36600319011261016357517f00000000000000000000000000000000000000000000000000000000000000006001600160a01b03168152602090f35b5034610163575f366003190112610163576020906001549051908152f35b50903461016357602036600319011261016357356001600160a01b0381169190829003610163576020915f526003825260ff815f20541690519015158152f35b5034610163575f36600319011261016357517f00000000000000000000000000000000000000000000000000000000000000006001600160a01b03168152602090f35b509034610163575f366003190112610163579080519182815480825260208092019081935f52825f20905f5b81811061084457505050846108009103856108a2565b825181815293518185018190528493840192915f5b82811061082457505050500390f35b83516001600160a01b031685528695509381019392810192600101610815565b82546001600160a01b0316845292840192600192830192016107ea565b34610163575f366003190112610163577f00000000000000000000000000000000000000000000000000000000000000006001600160a01b03168152602090f35b601f909101601f19168101906001600160401b038211908210176108c557604052565b634e487b7160e01b5f52604160045260245ffd5b90816020910312610163575180151581036101635790565b6001600160a01b039091168152602081019190915260400190565b60018060a01b03807f0000000000000000000000000000000000000000000000000000000000000000169060408051916370a0823160e01b808452600491308386015260209485816024818a5afa908115610646575f91610b42575b5015610b3a57805f54168451838152308582015286816024818b5afa908115610581579087915f91610b09575b50865163095ea7b360e01b815292839182916109b491908984016108f1565b03815f8b5af1801561064657610aec575b505f54168351828152308482015285816024818a5afa908115610646579086915f91610abb575b50855163a9059cbb60e01b81529283918291610a0b91908884016108f1565b03815f8a5af1801561055a5791602491869493610a9e575b5084519687938492835230908301525afa908115610a95575f91610a59575b5f80516020610e56833981519152935051908152a1565b90508183813d8311610a8e575b610a7081836108a2565b81010312610163575f80516020610e56833981519152925190610a42565b503d610a66565b513d5f823e3d90fd5b610ab490853d871161024e5761023f81836108a2565b505f610a23565b82819392503d8311610ae5575b610ad281836108a2565b8101031261016357518590610a0b6109ec565b503d610ac8565b610b0290863d881161024e5761023f81836108a2565b505f6109c5565b82819392503d8311610b33575b610b2081836108a2565b81010312610163575186906109b4610995565b503d610b16565b505050505050565b90508581813d8311610b68575b610b5981836108a2565b8101031261016357515f610968565b503d610b4f565b6020610bb1916040518093819263200e74cb60e21b83527f000000000000000000000000000000000000000000000000000000000000000090600484016108f1565b03817f00000000000000000000000000000000000000000000000000000000000000006001600160a01b03165afa908115610c4c575f91610c11575b506005811015610bfd5760021490565b634e487b7160e01b5f52602160045260245ffd5b90506020813d602011610c44575b81610c2c602093836108a2565b8101031261016357516005811015610163575f610bed565b3d9150610c1f565b6040513d5f823e3d90fd5b60015460405163770ef8b560e11b81527f000000000000000000000000000000000000000000000000000000000000000060048201526001600160a01b0392831660248201526020908282826044817f000000000000000000000000000000000000000000000000000000000000000089165afa918215610c4c575f92610ddb575b506002549182158015610da5575b505f957f00000000000000000000000000000000000000000000000000000000000000001680610d28575b505084159250610d23915050575090565b905090565b8495965090608491604095949551958694859363b5e3c3b360e01b85523360048601526024850152604484015260648301525afa918215610c4c575f92610d77575b5050905f80808080610d12565b90809250813d8311610d9e575b610d8e81836108a2565b8101031261016357515f80610d6a565b503d610d84565b8184969296029084820487141715610dc7578101809111610dc757935f610ce7565b634e487b7160e01b5f52601160045260245ffd5b9091508281813d8311610e03575b610df381836108a2565b810103126101635751905f610cd9565b503d610de9565b5f546001600160a01b03163303610e1d57565b60405163118cdaa760e01b8152336004820152602490fdfe8be0079c531659141344cd1fd0a4f28419497f9722a3daafe3b4186f6b6457e00d7f9b2189b7c65105ca51e925f5e6e3d3692be0e69c19bf382bd7e448777839a2646970667358221220708a8700b1d6e22eab5a5c893d616dc7eb1b5fc44b06e8ae84c5d1be7f2d65b764736f6c63430008180033000000000000000000000000eda52212b4be0eb74aef879e714e4f722ea263a0000000000000000000000000000000000000000000000000000000000000002500000000000000000000000000000000000000000000000000000000000000000000000000000000000000000000000000000000000000001bc16d674ec80000000000000000000000000000000000000000000000000000000000000000000000000000000000000000000062b8b11039fcfe5ab0c56e502b1c372a3d2a9c7a000000000000000000000000993461bbf7e553eb5bd1f5248a72b524c4a3b15d000000000000000000000000131dbbdf0d4397d71b479d5c10c49886db287dec"
        }
      ],
      "isFixedGasLimit": false
    }
  ],
  "receipts": [
    {
      "status": "0x1",
      "cumulativeGasUsed": "0x1b7c29",
      "logs": [],
      "logsBloom": "0x00000000000000000000000000000000000000000000000000000000000000000000000000000000000000000000000000000000000000000000000000000000000000000000000000000000000000000000000000000000000000000000000000000000000000000000000000000000000000000000000000000000000000000000000000000000000000000000000000000000000000000000000000000000000000000000000000000000000000000000000000000000000000000000000000000000000000000000000000000000000000000000000000000000000000000000000000000000000000000000000000000000000000000000000000000000",
      "type": "0x0",
      "transactionHash": "0xafd392a305334b27cb21ed89a207fd49722a02a28470abe49ca19046e5e1d30b",
      "transactionIndex": "0x5",
      "blockHash": "0xde43cda0c40f0fe9849f5005420157e2f07968bf689cea867bb2e96dea801f45",
      "blockNumber": "0x2b42d20",
      "gasUsed": "0x17057",
      "effectiveGasPrice": "0x5d22cfc40",
      "from": "0x993461bbf7e553eb5bd1f5248a72b524c4a3b15d",
      "to": null,
      "contractAddress": "0x131dbbdf0d4397d71b479d5c10c49886db287dec",
      "l1BaseFeeScalar": "0x0",
      "l1BlobBaseFee": "0x1",
      "l1BlobBaseFeeScalar": "0x0",
      "l1Fee": "0x0",
      "l1GasPrice": "0xc021d0f",
      "l1GasUsed": "0xc3d"
    },
    {
      "status": "0x1",
      "cumulativeGasUsed": "0x129b5d",
      "logs": [
        {
          "address": "0x89c1ec26c2025bcb197a0fbda36a5f213e797f0e",
          "topics": [
            "0x8be0079c531659141344cd1fd0a4f28419497f9722a3daafe3b4186f6b6457e0",
            "0x0000000000000000000000000000000000000000000000000000000000000000",
            "0x000000000000000000000000993461bbf7e553eb5bd1f5248a72b524c4a3b15d"
          ],
          "data": "0x",
          "blockHash": "0x28ec9c042646a86c625b4791a36de9431d3b789c34cd35ce0fb4cd90dcfc9922",
          "blockNumber": "0x2b42d21",
          "transactionHash": "0xd41b38eeb5220fe270201b7a7d1ac0d163f9c4f50de845095187d6580baef97d",
          "transactionIndex": "0x1",
          "logIndex": "0x0",
          "removed": false
        },
        {
          "address": "0x89c1ec26c2025bcb197a0fbda36a5f213e797f0e",
          "topics": [
            "0x293c0278ff20b67408bf7a8e537f517e4acd426e297424345e0dac1bf3b853e5"
          ],
          "data": "0x000000000000000000000000eda52212b4be0eb74aef879e714e4f722ea263a0000000000000000000000000000000000000000000000000000000000000002500000000000000000000000000000000000000000000000000000000000000000000000000000000000000000000000000000000000000001bc16d674ec8000000000000000000000000000062b8b11039fcfe5ab0c56e502b1c372a3d2a9c7a0000000000000000000000006bc0db897d678bf5c49e8cd6639d4bd7e4e93763",
          "blockHash": "0x28ec9c042646a86c625b4791a36de9431d3b789c34cd35ce0fb4cd90dcfc9922",
          "blockNumber": "0x2b42d21",
          "transactionHash": "0xd41b38eeb5220fe270201b7a7d1ac0d163f9c4f50de845095187d6580baef97d",
          "transactionIndex": "0x1",
          "logIndex": "0x1",
          "removed": false
        },
        {
          "address": "0x62b8b11039fcfe5ab0c56e502b1c372a3d2a9c7a",
          "topics": [
            "0x06b541ddaa720db2b10a4d0cdac39b8d360425fc073085fac19bc82614677987",
            "0x0000000000000000000000006bc0db897d678bf5c49e8cd6639d4bd7e4e93763",
            "0x000000000000000000000000993461bbf7e553eb5bd1f5248a72b524c4a3b15d",
            "0x00000000000000000000000089c1ec26c2025bcb197a0fbda36a5f213e797f0e"
          ],
          "data": "0x00000000000000000000000000000000000000000000000000000000000000000000000000000000000000000000000000000000000000000000000000000060000000000000000000000000000000000000000000000000000000000000008000000000000000000000000000000000000000000000000000000000000000000000000000000000000000000000000000000000000000000000000000000000",
          "blockHash": "0x28ec9c042646a86c625b4791a36de9431d3b789c34cd35ce0fb4cd90dcfc9922",
          "blockNumber": "0x2b42d21",
          "transactionHash": "0xd41b38eeb5220fe270201b7a7d1ac0d163f9c4f50de845095187d6580baef97d",
          "transactionIndex": "0x1",
          "logIndex": "0x2",
          "removed": false
        },
        {
          "address": "0x62b8b11039fcfe5ab0c56e502b1c372a3d2a9c7a",
          "topics": [
            "0xddf252ad1be2c89b69c2b068fc378daa952ba7f163c4a11628f55a4df523b3ef",
            "0x000000000000000000000000993461bbf7e553eb5bd1f5248a72b524c4a3b15d",
            "0x00000000000000000000000089c1ec26c2025bcb197a0fbda36a5f213e797f0e"
          ],
          "data": "0x0000000000000000000000000000000000000000000000000000000000000000",
          "blockHash": "0x28ec9c042646a86c625b4791a36de9431d3b789c34cd35ce0fb4cd90dcfc9922",
          "blockNumber": "0x2b42d21",
          "transactionHash": "0xd41b38eeb5220fe270201b7a7d1ac0d163f9c4f50de845095187d6580baef97d",
          "transactionIndex": "0x1",
          "logIndex": "0x3",
          "removed": false
        },
        {
          "address": "0x62b8b11039fcfe5ab0c56e502b1c372a3d2a9c7a",
          "topics": [
            "0x8c5be1e5ebec7d5bd14f71427d1e84f3dd0314c0f7b2291e5b200ac8c7c3b925",
            "0x000000000000000000000000993461bbf7e553eb5bd1f5248a72b524c4a3b15d",
            "0x0000000000000000000000006bc0db897d678bf5c49e8cd6639d4bd7e4e93763"
          ],
          "data": "0x0000000000000000000000000000000000000000000000000000000000000000",
          "blockHash": "0x28ec9c042646a86c625b4791a36de9431d3b789c34cd35ce0fb4cd90dcfc9922",
          "blockNumber": "0x2b42d21",
          "transactionHash": "0xd41b38eeb5220fe270201b7a7d1ac0d163f9c4f50de845095187d6580baef97d",
          "transactionIndex": "0x1",
          "logIndex": "0x4",
          "removed": false
        },
        {
          "address": "0x6bc0db897d678bf5c49e8cd6639d4bd7e4e93763",
          "topics": [
            "0xebbf90e5ab3ed850195da91e9ed05a4977f90a2cb4e29db22ca570f8555cd33f"
          ],
          "data": "0x000000000000000000000000000000000000000000000000000000000000002500000000000000000000000089c1ec26c2025bcb197a0fbda36a5f213e797f0e00000000000000000000000000000000000000000000000000000000000000000000000000000000000000000000000000000000000000001bc16d674ec80000000000000000000000000000000000000000000000000000000000000000000000000000000000000000000062b8b11039fcfe5ab0c56e502b1c372a3d2a9c7a",
          "blockHash": "0x28ec9c042646a86c625b4791a36de9431d3b789c34cd35ce0fb4cd90dcfc9922",
          "blockNumber": "0x2b42d21",
          "transactionHash": "0xd41b38eeb5220fe270201b7a7d1ac0d163f9c4f50de845095187d6580baef97d",
          "transactionIndex": "0x1",
          "logIndex": "0x5",
          "removed": false
        }
      ],
      "logsBloom": "0x00000000000000000000000000000000000000001000000000800000000080000000000008000000000840000000000000000000000000000000000000200200000000400004000000000008000400000001088000100000000000000000000000000000020000000200000000000800000000400000000000000010000000600000000000001080000000000000000008008000000000000000000000000000020001000100000000000000000020000000000000000000000000000080000000000002000000100000000000000000000080000000000000002020000020000010000000000000000000000000000000000000000000000000000000000000",
      "type": "0x0",
      "transactionHash": "0xd41b38eeb5220fe270201b7a7d1ac0d163f9c4f50de845095187d6580baef97d",
      "transactionIndex": "0x1",
      "blockHash": "0x28ec9c042646a86c625b4791a36de9431d3b789c34cd35ce0fb4cd90dcfc9922",
      "blockNumber": "0x2b42d21",
      "gasUsed": "0x11e741",
      "effectiveGasPrice": "0x5d22cfc40",
      "from": "0x993461bbf7e553eb5bd1f5248a72b524c4a3b15d",
      "to": "0x6bc0db897d678bf5c49e8cd6639d4bd7e4e93763",
      "contractAddress": null,
      "l1BaseFeeScalar": "0x0",
      "l1BlobBaseFee": "0x1",
      "l1BlobBaseFeeScalar": "0x0",
      "l1Fee": "0x0",
      "l1GasPrice": "0xc021d0f",
      "l1GasUsed": "0x710"
    }
  ],
  "libraries": [],
  "pending": [],
  "returns": {
    "0": {
      "internal_type": "address",
      "value": "0x131DBbDF0D4397d71b479D5C10C49886Db287dEc"
    }
  },
  "timestamp": 1757263224,
  "chain": 42220,
  "commit": "30bfca3"
}