{
  "transactions": [
    {
      "hash": "0xcef1aeda87d5ddadb9495b82e1d90884ec32d6ffcc87e9407c4e7685810db10f",
      "transactionType": "CREATE",
      "contractName": "CustomReward",
      "contractAddress": "0xaa27a5b09473d650b6b8a93566d2ebc9afe3f3e1",
      "function": null,
      "arguments": null,
      "transaction": {
        "from": "0x993461bbf7e553eb5bd1f5248a72b524c4a3b15d",
        "gas": "0x1ded7",
        "value": "0x0",
        "input": "0x6080806040523460145760bd90816100198239f35b5f80fdfe60808060405260043610156011575f80fd5b5f3560e01c90816366e305fd146053575063b5e3c3b314602f575f80fd5b34604f576080366003190112604f5760446072565b5060206040515f8152f35b5f80fd5b34604f576020366003190112604f57602090606b6072565b5060018152f35b600435906001600160a01b0382168203604f5756fea26469706673582212207f0cda2ce8c02d4f2e5c749b3e485bedf62d4793ec0757ac3a739c61d59a076c64736f6c63430008180033",
        "nonce": "0x3c",
        "chainId": "0xa4ec"
      },
      "additionalContracts": [],
      "isFixedGasLimit": false
    },
    {
      "hash": "0x99a1887a35ffc37e4edb3f7c5a6e315960d6a956ff27e8deb333f730a8fe470f",
      "transactionType": "CALL",
      "contractName": null,
      "contractAddress": "0x6bc0db897d678bf5c49e8cd6639d4bd7e4e93763",
      "function": "createReward(uint256,uint256,uint256,uint256,address,address)",
      "arguments": [
        "37",
        "0",
        "2000000000000000000",
        "0",
        "0x62B8B11039FcfE5aB0C56E502b1C372A3d2a9c7A",
        "0xAa27a5b09473D650b6b8A93566d2ebc9afe3f3e1"
      ],
      "transaction": {
        "from": "0x993461bbf7e553eb5bd1f5248a72b524c4a3b15d",
        "to": "0x6bc0db897d678bf5c49e8cd6639d4bd7e4e93763",
        "gas": "0x1a394a",
        "value": "0x0",
        "input": "0x725ee49e000000000000000000000000000000000000000000000000000000000000002500000000000000000000000000000000000000000000000000000000000000000000000000000000000000000000000000000000000000001bc16d674ec80000000000000000000000000000000000000000000000000000000000000000000000000000000000000000000062b8b11039fcfe5ab0c56e502b1c372a3d2a9c7a000000000000000000000000aa27a5b09473d650b6b8a93566d2ebc9afe3f3e1",
        "nonce": "0x3d",
        "chainId": "0xa4ec"
      },
      "additionalContracts": [
        {
          "transactionType": "CREATE",
          "address": "0x2fd1447e52d903e0e529a5ca6814cd63098ac9b8",
          "initCode": "0x610120346101cd57601f6110ae38819003918201601f19168301916001600160401b038311848410176101d15780849260409485528339610100938491810103126101cd5761004d816101e5565b60208201518383015160608401519160808501519361006e60a087016101e5565b9461008760e061008060c08a016101e5565b98016101e5565b6001600160a01b0397909190881680156101b6579789969381969360c09996937f293c0278ff20b67408bf7a8e537f517e4acd426e297424345e0dac1bf3b853e59b845f549b828d60018060a01b031916175f55519b167f8be0079c531659141344cd1fd0a4f28419497f9722a3daafe3b4186f6b6457e05f80a3826080528460a05286600155600255868a523360e0528c5216865260208601528785015260608401521660808201523360a0820152a151610eb491826101fa833960805182818161078301528181610bb30152610cac015260a0518281816105bd0152818161068901528181610b860152610c67015260c0518281816101c40152818161048901528181610867015261090a015260e051826102ba0152518181816103fa015281816106e20152610cf00152f35b8951631e4fbdf760e01b81525f6004820152602490fd5b5f80fd5b634e487b7160e01b5f52604160045260245ffd5b51906001600160a01b03821682036101cd5756fe6080604081815260049182361015610015575f80fd5b5f3560e01c90816310fe9ae8146108555750806317261921146107b25780633bce4ceb1461076f5780633c1bfa051461072f5780633ca69088146107115780633cb6d466146106ce5780633ccfd60b146106ac57806344ee2d85146106725780634e71d92d146103bb57806363b85707146103825780636900d9da14610364578063715018a614610320578063804b4938146102e957806388cc58e4146102a65780638da5cb5b1461027f5780639b2675f51461025f578063ca1d209d14610187578063df2842c0146101675763f2fde38b146100f0575f80fd5b34610163576020366003190112610163576001600160a01b0382358181169391929084900361016357610121610e13565b831561014d5750505f548260018060a01b03198216175f55165f80516020610e3f8339815191525f80a3005b905f6024925191631e4fbdf760e01b8352820152fd5b5f80fd5b823461016357602036600319011261016357610181610e13565b35600255005b5090346101635760203660031901126101635781516323b872dd60e01b81523381830152306024820152903560448201819052906020816064815f7f00000000000000000000000000000000000000000000000000000000000000006001600160a01b03165af180156102555792602092917f8e5972bbf4ac8ca87b99fe9004c16981a58dbf459996e8ec9c327efec15f0e2294610228575b5051908152a1005b61024790843d861161024e575b61023f8183610896565b8101906108cd565b505f610220565b503d610235565b83513d5f823e3d90fd5b823461016357602036600319011261016357610279610e13565b35600155005b5034610163575f366003190112610163575f5490516001600160a01b039091168152602090f35b5034610163575f36600319011261016357517f00000000000000000000000000000000000000000000000000000000000000006001600160a01b03168152602090f35b5090346101635760203660031901126101635735906001600160a01b038216820361016357610319602092610c55565b9051908152f35b34610163575f36600319011261016357610338610e13565b5f80546001600160a01b0319811682556001600160a01b03165f80516020610e3f8339815191528280a3005b5034610163575f366003190112610163576020906002549051908152f35b5090346101635760203660031901126101635735906001600160a01b0382168203610163576103b2602092610b6d565b90519015158152f35b509034610163575f36600319011261016357335f5260206003815260ff835f20541661065b576103ea33610b6d565b15610644576001600160a01b03917f00000000000000000000000000000000000000000000000000000000000000008316806105af575b50335f90815260038352849020805460ff191660011790558054600160401b81101561059c5760018101808355811015610589575f8281528390200180546001600160a01b0319163390811790915561047990610c55565b845163095ea7b360e01b815290937f0000000000000000000000000000000000000000000000000000000000000000168382806104b988338884016108e5565b03815f855af190811561057f576104f09385938793610562575b505f885180968195829463a9059cbb60e01b8452339084016108e5565b03925af1801561055857917f9530ea26ca3d40933be084314076599d86fe7e09cea00b9fe717903fe85fd1fb9491610535949361053a575b50505191829133836108e5565b0390a1005b8161055092903d1061024e5761023f8183610896565b505f80610528565b84513d5f823e3d90fd5b61057890853d871161024e5761023f8183610896565b505f6104d3565b86513d5f823e3d90fd5b603282634e487b7160e01b5f525260245ffd5b604182634e487b7160e01b5f525260245ffd5b8451633602a10d60e21b81527f0000000000000000000000000000000000000000000000000000000000000000918490829081806105f087338a84016108e5565b03915afa90811561057f575f91610627575b50610421578451636f90153b60e01b815291829161062391339084016108e5565b0390fd5b61063e9150843d861161024e5761023f8183610896565b5f610602565b506024915190634786797b60e01b82523390820152fd5b506024915190631561877960e31b82523390820152fd5b5034610163575f36600319011261016357602090517f00000000000000000000000000000000000000000000000000000000000000008152f35b34610163575f366003190112610163576106c4610e13565b6106cc610900565b005b5034610163575f36600319011261016357517f00000000000000000000000000000000000000000000000000000000000000006001600160a01b03168152602090f35b5034610163575f366003190112610163576020906001549051908152f35b50903461016357602036600319011261016357356001600160a01b0381169190829003610163576020915f526003825260ff815f20541690519015158152f35b5034610163575f36600319011261016357517f00000000000000000000000000000000000000000000000000000000000000006001600160a01b03168152602090f35b509034610163575f366003190112610163579080519182815480825260208092019081935f52825f20905f5b81811061083857505050846107f4910385610896565b825181815293518185018190528493840192915f5b82811061081857505050500390f35b83516001600160a01b031685528695509381019392810192600101610809565b82546001600160a01b0316845292840192600192830192016107de565b34610163575f366003190112610163577f00000000000000000000000000000000000000000000000000000000000000006001600160a01b03168152602090f35b601f909101601f19168101906001600160401b038211908210176108b957604052565b634e487b7160e01b5f52604160045260245ffd5b90816020910312610163575180151581036101635790565b6001600160a01b039091168152602081019190915260400190565b60018060a01b03807f0000000000000000000000000000000000000000000000000000000000000000169060408051916370a0823160e01b808452600491308386015260209485816024818a5afa908115610ae0575f91610b40575b5015610b3857805f54168451838152308582015286816024818b5afa90811561057f579087915f91610b07575b50865163095ea7b360e01b815292839182916109a891908984016108e5565b03815f8b5af18015610ae057610aea575b505f54168351828152308482015285816024818a5afa908115610ae0579086915f91610aaf575b50855163a9059cbb60e01b815292839182916109ff91908884016108e5565b03815f8a5af180156105585791602491869493610a92575b5084519687938492835230908301525afa908115610a89575f91610a4d575b5f80516020610e5f833981519152935051908152a1565b90508183813d8311610a82575b610a648183610896565b81010312610163575f80516020610e5f833981519152925190610a36565b503d610a5a565b513d5f823e3d90fd5b610aa890853d871161024e5761023f8183610896565b505f610a17565b82819392503d8311610ad9575b610ac68183610896565b81010312610163575185906109ff6109e0565b503d610abc565b85513d5f823e3d90fd5b610b0090863d881161024e5761023f8183610896565b505f6109b9565b82819392503d8311610b31575b610b1e8183610896565b81010312610163575186906109a8610989565b503d610b14565b505050505050565b90508581813d8311610b66575b610b578183610896565b8101031261016357515f61095c565b503d610b4d565b6020610baf916040518093819263200e74cb60e21b83527f000000000000000000000000000000000000000000000000000000000000000090600484016108e5565b03817f00000000000000000000000000000000000000000000000000000000000000006001600160a01b03165afa908115610c4a575f91610c0f575b506005811015610bfb5760021490565b634e487b7160e01b5f52602160045260245ffd5b90506020813d602011610c42575b81610c2a60209383610896565b8101031261016357516005811015610163575f610beb565b3d9150610c1d565b6040513d5f823e3d90fd5b60015460405163770ef8b560e11b81527f0000000000000000000000000000000000000000000000000000000000000000600482018190526001600160a01b039384166024830152929190602090829082816044817f000000000000000000000000000000000000000000000000000000000000000089165afa908115610c4a575f91610de6575b506002549586158015610db0575b505f957f00000000000000000000000000000000000000000000000000000000000000001680610d30575b50505050509091508115155f14610d2b575090565b905090565b84965060a49293959760405196879586946391c289f160e01b865233600487015260248601526044850152606484015260848301525afa918215610c4a575f92610d82575b5050815f80808080610d16565b90809250813d8311610da9575b610d998183610896565b8101031261016357515f80610d75565b503d610d8f565b8288969296029088820484141715610dd2578101809111610dd257935f610ceb565b634e487b7160e01b5f52601160045260245ffd5b90508281813d8311610e0c575b610dfd8183610896565b8101031261016357515f610cdd565b503d610df3565b5f546001600160a01b03163303610e2657565b60405163118cdaa760e01b8152336004820152602490fdfe8be0079c531659141344cd1fd0a4f28419497f9722a3daafe3b4186f6b6457e00d7f9b2189b7c65105ca51e925f5e6e3d3692be0e69c19bf382bd7e448777839a2646970667358221220c7c622b8dec59ef6e9c6d6fd1353dfcbaccbeba9d9118a3d37250ae9445883ed64736f6c63430008180033000000000000000000000000eda52212b4be0eb74aef879e714e4f722ea263a0000000000000000000000000000000000000000000000000000000000000002500000000000000000000000000000000000000000000000000000000000000000000000000000000000000000000000000000000000000001bc16d674ec80000000000000000000000000000000000000000000000000000000000000000000000000000000000000000000062b8b11039fcfe5ab0c56e502b1c372a3d2a9c7a000000000000000000000000993461bbf7e553eb5bd1f5248a72b524c4a3b15d000000000000000000000000aa27a5b09473d650b6b8a93566d2ebc9afe3f3e1"
        }
      ],
      "isFixedGasLimit": false
    }
  ],
  "receipts": [
    {
      "status": "0x1",
      "cumulativeGasUsed": "0x1d5ee1",
      "logs": [],
      "logsBloom": "0x00000000000000000000000000000000000000000000000000000000000000000000000000000000000000000000000000000000000000000000000000000000000000000000000000000000000000000000000000000000000000000000000000000000000000000000000000000000000000000000000000000000000000000000000000000000000000000000000000000000000000000000000000000000000000000000000000000000000000000000000000000000000000000000000000000000000000000000000000000000000000000000000000000000000000000000000000000000000000000000000000000000000000000000000000000000",
      "type": "0x0",
      "transactionHash": "0xcef1aeda87d5ddadb9495b82e1d90884ec32d6ffcc87e9407c4e7685810db10f",
      "transactionIndex": "0xa",
      "blockHash": "0x0b376a080e4939dbe3d812497898d723a63cf6831b114b26fcc8b03f88549297",
      "blockNumber": "0x2b417e2",
      "gasUsed": "0x17057",
      "effectiveGasPrice": "0x5d22cfc40",
      "from": "0x993461bbf7e553eb5bd1f5248a72b524c4a3b15d",
      "to": null,
      "contractAddress": "0xaa27a5b09473d650b6b8a93566d2ebc9afe3f3e1",
      "l1BaseFeeScalar": "0x0",
      "l1BlobBaseFee": "0x1",
      "l1BlobBaseFeeScalar": "0x0",
      "l1Fee": "0x0",
      "l1GasPrice": "0xa00d276",
      "l1GasUsed": "0xc3d"
    },
    {
      "status": "0x1",
      "cumulativeGasUsed": "0x2f4d2a",
      "logs": [
        {
          "address": "0x2fd1447e52d903e0e529a5ca6814cd63098ac9b8",
          "topics": [
            "0x8be0079c531659141344cd1fd0a4f28419497f9722a3daafe3b4186f6b6457e0",
            "0x0000000000000000000000000000000000000000000000000000000000000000",
            "0x000000000000000000000000993461bbf7e553eb5bd1f5248a72b524c4a3b15d"
          ],
          "data": "0x",
          "blockHash": "0x0b376a080e4939dbe3d812497898d723a63cf6831b114b26fcc8b03f88549297",
          "blockNumber": "0x2b417e2",
          "transactionHash": "0x99a1887a35ffc37e4edb3f7c5a6e315960d6a956ff27e8deb333f730a8fe470f",
          "transactionIndex": "0xb",
          "logIndex": "0x25",
          "removed": false
        },
        {
          "address": "0x2fd1447e52d903e0e529a5ca6814cd63098ac9b8",
          "topics": [
            "0x293c0278ff20b67408bf7a8e537f517e4acd426e297424345e0dac1bf3b853e5"
          ],
          "data": "0x000000000000000000000000eda52212b4be0eb74aef879e714e4f722ea263a0000000000000000000000000000000000000000000000000000000000000002500000000000000000000000000000000000000000000000000000000000000000000000000000000000000000000000000000000000000001bc16d674ec8000000000000000000000000000062b8b11039fcfe5ab0c56e502b1c372a3d2a9c7a0000000000000000000000006bc0db897d678bf5c49e8cd6639d4bd7e4e93763",
          "blockHash": "0x0b376a080e4939dbe3d812497898d723a63cf6831b114b26fcc8b03f88549297",
          "blockNumber": "0x2b417e2",
          "transactionHash": "0x99a1887a35ffc37e4edb3f7c5a6e315960d6a956ff27e8deb333f730a8fe470f",
          "transactionIndex": "0xb",
          "logIndex": "0x26",
          "removed": false
        },
        {
          "address": "0x62b8b11039fcfe5ab0c56e502b1c372a3d2a9c7a",
          "topics": [
            "0x06b541ddaa720db2b10a4d0cdac39b8d360425fc073085fac19bc82614677987",
            "0x0000000000000000000000006bc0db897d678bf5c49e8cd6639d4bd7e4e93763",
            "0x000000000000000000000000993461bbf7e553eb5bd1f5248a72b524c4a3b15d",
            "0x0000000000000000000000002fd1447e52d903e0e529a5ca6814cd63098ac9b8"
          ],
          "data": "0x00000000000000000000000000000000000000000000000000000000000000000000000000000000000000000000000000000000000000000000000000000060000000000000000000000000000000000000000000000000000000000000008000000000000000000000000000000000000000000000000000000000000000000000000000000000000000000000000000000000000000000000000000000000",
          "blockHash": "0x0b376a080e4939dbe3d812497898d723a63cf6831b114b26fcc8b03f88549297",
          "blockNumber": "0x2b417e2",
          "transactionHash": "0x99a1887a35ffc37e4edb3f7c5a6e315960d6a956ff27e8deb333f730a8fe470f",
          "transactionIndex": "0xb",
          "logIndex": "0x27",
          "removed": false
        },
        {
          "address": "0x62b8b11039fcfe5ab0c56e502b1c372a3d2a9c7a",
          "topics": [
            "0xddf252ad1be2c89b69c2b068fc378daa952ba7f163c4a11628f55a4df523b3ef",
            "0x000000000000000000000000993461bbf7e553eb5bd1f5248a72b524c4a3b15d",
            "0x0000000000000000000000002fd1447e52d903e0e529a5ca6814cd63098ac9b8"
          ],
          "data": "0x0000000000000000000000000000000000000000000000000000000000000000",
          "blockHash": "0x0b376a080e4939dbe3d812497898d723a63cf6831b114b26fcc8b03f88549297",
          "blockNumber": "0x2b417e2",
          "transactionHash": "0x99a1887a35ffc37e4edb3f7c5a6e315960d6a956ff27e8deb333f730a8fe470f",
          "transactionIndex": "0xb",
          "logIndex": "0x28",
          "removed": false
        },
        {
          "address": "0x62b8b11039fcfe5ab0c56e502b1c372a3d2a9c7a",
          "topics": [
            "0x8c5be1e5ebec7d5bd14f71427d1e84f3dd0314c0f7b2291e5b200ac8c7c3b925",
            "0x000000000000000000000000993461bbf7e553eb5bd1f5248a72b524c4a3b15d",
            "0x0000000000000000000000006bc0db897d678bf5c49e8cd6639d4bd7e4e93763"
          ],
          "data": "0x0000000000000000000000000000000000000000000000000000000000000000",
          "blockHash": "0x0b376a080e4939dbe3d812497898d723a63cf6831b114b26fcc8b03f88549297",
          "blockNumber": "0x2b417e2",
          "transactionHash": "0x99a1887a35ffc37e4edb3f7c5a6e315960d6a956ff27e8deb333f730a8fe470f",
          "transactionIndex": "0xb",
          "logIndex": "0x29",
          "removed": false
        },
        {
          "address": "0x6bc0db897d678bf5c49e8cd6639d4bd7e4e93763",
          "topics": [
            "0xebbf90e5ab3ed850195da91e9ed05a4977f90a2cb4e29db22ca570f8555cd33f"
          ],
          "data": "0x00000000000000000000000000000000000000000000000000000000000000250000000000000000000000002fd1447e52d903e0e529a5ca6814cd63098ac9b800000000000000000000000000000000000000000000000000000000000000000000000000000000000000000000000000000000000000001bc16d674ec80000000000000000000000000000000000000000000000000000000000000000000000000000000000000000000062b8b11039fcfe5ab0c56e502b1c372a3d2a9c7a",
          "blockHash": "0x0b376a080e4939dbe3d812497898d723a63cf6831b114b26fcc8b03f88549297",
          "blockNumber": "0x2b417e2",
          "transactionHash": "0x99a1887a35ffc37e4edb3f7c5a6e315960d6a956ff27e8deb333f730a8fe470f",
          "transactionIndex": "0xb",
          "logIndex": "0x2a",
          "removed": false
        }
      ],
      "logsBloom": "0x00000000000000000000000000000000000000001000000000800000000080000000000008000000000040008000000000000000000000000020000000200200000000400004000000000008000000000001088000100000000000000040000000000000020000000000000000000800000400400000000000000010000000600000000002001080000000000000000008008000000000000000000000000000020000000100000000000000000020000000000000000000000000000080000000000002000000000000000000000000000080000000000000002000000020000010000000000000000000000040000000000000000000000000000000000000",
      "type": "0x0",
      "transactionHash": "0x99a1887a35ffc37e4edb3f7c5a6e315960d6a956ff27e8deb333f730a8fe470f",
      "transactionIndex": "0xb",
      "blockHash": "0x0b376a080e4939dbe3d812497898d723a63cf6831b114b26fcc8b03f88549297",
      "blockNumber": "0x2b417e2",
      "gasUsed": "0x11ee49",
      "effectiveGasPrice": "0x5d22cfc40",
      "from": "0x993461bbf7e553eb5bd1f5248a72b524c4a3b15d",
      "to": "0x6bc0db897d678bf5c49e8cd6639d4bd7e4e93763",
      "contractAddress": null,
      "l1BaseFeeScalar": "0x0",
      "l1BlobBaseFee": "0x1",
      "l1BlobBaseFeeScalar": "0x0",
      "l1Fee": "0x0",
      "l1GasPrice": "0xa00d276",
      "l1GasUsed": "0x710"
    }
  ],
  "libraries": [],
  "pending": [],
  "returns": {
    "0": {
      "internal_type": "address",
      "value": "0xAa27a5b09473D650b6b8A93566d2ebc9afe3f3e1"
    }
  },
  "timestamp": 1757257790,
  "chain": 42220,
  "commit": "61d6a42"
}