{
  "transactions": [
    {
      "hash": "0x99cda58517bbb8f1cc05c3ff1c49362988d15f476eef5a5aaa74fea7643d498e",
      "transactionType": "CREATE",
      "contractName": "CustomReward",
      "contractAddress": "0xc0634fef512274913fde3f086ffa71987be82957",
      "function": null,
      "arguments": null,
      "transaction": {
        "from": "0x993461bbf7e553eb5bd1f5248a72b524c4a3b15d",
        "gas": "0x280a1",
        "value": "0x0",
        "input": "0x6080806040523461001657610151908161001b8239f35b5f80fdfe6080806040526004361015610012575f80fd5b5f3560e01c63b5e3c3b314610025575f80fd5b346100f15760803660031901126100f1576004356001600160a01b038116908190036100f1576370a0823160e01b8252600482015260208160248173799a23da264a157db6f9c02be62f82ce8d602a455afa908115610110575f916100b1575b50156100a9576020674563918244f400005b6040516001600160401b039091168152f35b60205f610097565b905060203d602011610109575b601f8101601f191682016001600160401b038111838210176100f5576020918391604052810103126100f157515f610085565b5f80fd5b634e487b7160e01b5f52604160045260245ffd5b503d6100be565b6040513d5f823e3d90fdfea2646970667358221220207be05e29a0ebf47fa86d815c45cb44294aee2ac3be731b3632312ddde844c664736f6c63430008180033",
        "nonce": "0xa7",
        "chainId": "0xa4ec"
      },
      "additionalContracts": [],
      "isFixedGasLimit": false
    },
    {
      "hash": "0xf2d6569f2ce4fab47e8c32006f645fdb9d8c0cab41270de5be9f459afc37bf21",
      "transactionType": "CALL",
      "contractName": null,
      "contractAddress": "0x6bc0db897d678bf5c49e8cd6639d4bd7e4e93763",
      "function": "createReward(uint256,uint256,uint256,uint256,address,address)",
      "arguments": [
        "37",
        "0",
        "2000000000000000000",
        "0",
        "0x62B8B11039FcfE5aB0C56E502b1C372A3d2a9c7A",
        "0xc0634fEF512274913fDE3F086fFA71987bE82957"
      ],
      "transaction": {
        "from": "0x993461bbf7e553eb5bd1f5248a72b524c4a3b15d",
        "to": "0x6bc0db897d678bf5c49e8cd6639d4bd7e4e93763",
        "gas": "0x18ffd9",
        "value": "0x0",
        "input": "0x725ee49e000000000000000000000000000000000000000000000000000000000000002500000000000000000000000000000000000000000000000000000000000000000000000000000000000000000000000000000000000000001bc16d674ec80000000000000000000000000000000000000000000000000000000000000000000000000000000000000000000062b8b11039fcfe5ab0c56e502b1c372a3d2a9c7a000000000000000000000000c0634fef512274913fde3f086ffa71987be82957",
        "nonce": "0xa8",
        "chainId": "0xa4ec"
      },
      "additionalContracts": [
        {
          "transactionType": "CREATE",
          "address": "0x4ddec2e353beec7696636741439c2804886446c0",
          "initCode": "0x610120346101cd57601f6110e538819003918201601f19168301916001600160401b038311848410176101d15780849260409485528339610100938491810103126101cd5761004d816101e5565b60208201518383015160608401519160808501519361006e60a087016101e5565b9461008760e061008060c08a016101e5565b98016101e5565b6001600160a01b0397909190881680156101b6579789969381969360c09996937f293c0278ff20b67408bf7a8e537f517e4acd426e297424345e0dac1bf3b853e59b845f549b828d60018060a01b031916175f55519b167f8be0079c531659141344cd1fd0a4f28419497f9722a3daafe3b4186f6b6457e05f80a3826080528460a05286600155600255868a523360e0528c5216865260208601528785015260608401521660808201523360a0820152a151610eeb91826101fa83396080518281816106e401528181610bce0152610d68015260a0518281816105ee01528181610ba10152610d28015260c0518281816101d70152818161047b015281816107e301528181610875015261092e015260e051826102cd01525181818161064701528181610cb40152610daa0152f35b8951631e4fbdf760e01b81525f6004820152602490fd5b5f80fd5b634e487b7160e01b5f52604160045260245ffd5b51906001600160a01b03821682036101cd5756fe608060409080825260049081361015610016575f80fd5b5f3560e01c90816310fe9ae8146108635750806312065fe0146107b557806317261921146107135780633bce4ceb146106d05780633c1bfa05146106945780633ca69088146106765780633cb6d466146106335780633ccfd60b1461061157806344ee2d85146105d75780634e71d92d146103e057806363b85707146103b25780636900d9da146103945780636a78d3b71461036c578063715018a614610328578063804b4938146102fc57806388cc58e4146102b95780638da5cb5b146102925780639b2675f514610272578063ca1d209d1461019b578063df2842c01461017b5763f2fde38b14610107575f80fd5b34610177576020366003190112610177576101206108a4565b90610129610e4a565b6001600160a01b039182169283156101615750505f548260018060a01b03198216175f55165f80516020610e768339815191525f80a3005b905f6024925191631e4fbdf760e01b8352820152fd5b5f80fd5b503461017757602036600319011261017757610195610e4a565b35600255005b50346101775760203660031901126101775781516323b872dd60e01b81523381830152306024820152903560448201819052906020816064815f7f00000000000000000000000000000000000000000000000000000000000000006001600160a01b03165af180156102685792602092917f8e5972bbf4ac8ca87b99fe9004c16981a58dbf459996e8ec9c327efec15f0e229461023b575b5051908152a1005b61025a90843d8611610261575b61025281836108ba565b8101906108f1565b505f610233565b503d610248565b83513d5f823e3d90fd5b50346101775760203660031901126101775761028c610e4a565b35600155005b8234610177575f366003190112610177575f5490516001600160a01b039091168152602090f35b8234610177575f36600319011261017757517f00000000000000000000000000000000000000000000000000000000000000006001600160a01b03168152602090f35b82346101775760203660031901126101775760209061032161031c6108a4565b610d16565b9051908152f35b34610177575f36600319011261017757610340610e4a565b5f80546001600160a01b0319811682556001600160a01b03165f80516020610e768339815191528280a3005b823461017757806003193601126101775760209061032161038b6108a4565b60243590610c70565b8234610177575f366003190112610177576020906002549051908152f35b8234610177576020366003190112610177576020906103d76103d26108a4565b610b88565b90519015158152f35b5034610177575f36600319011261017757335f5260206003815260ff835f2054166105c05761040e33610b88565b156105a957335f90815260038252839020805460ff191660011790558154600160401b8110156105965760018101808455811015610583575f8381528290200180546001600160a01b0319163390811790915561046a90610d16565b835163095ea7b360e01b81529092907f00000000000000000000000000000000000000000000000000000000000000006001600160a01b03168382806104b38833838901610909565b03815f855af1908115610579576104ea938593879361055c575b505f885180968195829463a9059cbb60e01b845233908401610909565b03925af1801561055257917f9530ea26ca3d40933be084314076599d86fe7e09cea00b9fe717903fe85fd1fb949161052f9493610534575b5050519182913383610909565b0390a1005b8161054a92903d106102615761025281836108ba565b505f80610522565b84513d5f823e3d90fd5b61057290853d87116102615761025281836108ba565b505f6104cd565b86513d5f823e3d90fd5b603283634e487b7160e01b5f525260245ffd5b604183634e487b7160e01b5f525260245ffd5b506024915190634786797b60e01b82523390820152fd5b506024915190631561877960e31b82523390820152fd5b8234610177575f36600319011261017757602090517f00000000000000000000000000000000000000000000000000000000000000008152f35b34610177575f36600319011261017757610629610e4a565b610631610924565b005b8234610177575f36600319011261017757517f00000000000000000000000000000000000000000000000000000000000000006001600160a01b03168152602090f35b8234610177575f366003190112610177576020906001549051908152f35b8234610177576020366003190112610177576020906001600160a01b036106b96108a4565b165f526003825260ff815f20541690519015158152f35b8234610177575f36600319011261017757517f00000000000000000000000000000000000000000000000000000000000000006001600160a01b03168152602090f35b5034610177575f366003190112610177579080519182815480825260208092019081935f52825f20905f5b81811061079857505050846107549103856108ba565b825181815293518185018190528493840192915f5b82811061077857505050500390f35b83516001600160a01b031685528695509381019392810192600101610769565b82546001600160a01b03168452928401926001928301920161073e565b509034610177575f3660031901126101775780516370a0823160e01b815230928101929092526020826024817f00000000000000000000000000000000000000000000000000000000000000006001600160a01b03165afa90811561085a575f91610825575b6020925051908152f35b90506020823d602011610852575b81610840602093836108ba565b8101031261017757602091519061081b565b3d9150610833565b513d5f823e3d90fd5b34610177575f366003190112610177577f00000000000000000000000000000000000000000000000000000000000000006001600160a01b03168152602090f35b600435906001600160a01b038216820361017757565b601f909101601f19168101906001600160401b038211908210176108dd57604052565b634e487b7160e01b5f52604160045260245ffd5b90816020910312610177575180151581036101775790565b6001600160a01b039091168152602081019190915260400190565b60018060a01b03807f0000000000000000000000000000000000000000000000000000000000000000169060408051916370a0823160e01b808452600491308386015260209485816024818a5afa908115610afb575f91610b5b575b5015610b5357805f54168451838152308582015286816024818b5afa908115610579579087915f91610b22575b50865163095ea7b360e01b815292839182916109cc9190898401610909565b03815f8b5af18015610afb57610b05575b505f54168351828152308482015285816024818a5afa908115610afb579086915f91610aca575b50855163a9059cbb60e01b81529283918291610a239190888401610909565b03815f8a5af180156105525791602491869493610aad575b5084519687938492835230908301525afa90811561085a575f91610a71575b5f80516020610e96833981519152935051908152a1565b90508183813d8311610aa6575b610a8881836108ba565b81010312610177575f80516020610e96833981519152925190610a5a565b503d610a7e565b610ac390853d87116102615761025281836108ba565b505f610a3b565b82819392503d8311610af4575b610ae181836108ba565b8101031261017757518590610a23610a04565b503d610ad7565b85513d5f823e3d90fd5b610b1b90863d88116102615761025281836108ba565b505f6109dd565b82819392503d8311610b4c575b610b3981836108ba565b81010312610177575186906109cc6109ad565b503d610b2f565b505050505050565b90508581813d8311610b81575b610b7281836108ba565b8101031261017757515f610980565b503d610b68565b6020610bca916040518093819263200e74cb60e21b83527f00000000000000000000000000000000000000000000000000000000000000009060048401610909565b03817f00000000000000000000000000000000000000000000000000000000000000006001600160a01b03165afa908115610c65575f91610c2a575b506005811015610c165760021490565b634e487b7160e01b5f52602160045260245ffd5b90506020813d602011610c5d575b81610c45602093836108ba565b8101031261017757516005811015610177575f610c06565b3d9150610c38565b6040513d5f823e3d90fd5b60015460025460405163b5e3c3b360e01b81526001600160a01b039384166004820152602481019490945260448401919091526064830152602090829060849082907f0000000000000000000000000000000000000000000000000000000000000000165afa908115610c65575f91610ce7575090565b90506020813d602011610d0e575b81610d02602093836108ba565b81010312610177575190565b3d9150610cf5565b60015460405163770ef8b560e11b81527f000000000000000000000000000000000000000000000000000000000000000060048201526001600160a01b038084166024830152919290916020836044817f000000000000000000000000000000000000000000000000000000000000000085165afa928315610c65575f93610e16575b5060025480158015610de0575b50507f000000000000000000000000000000000000000000000000000000000000000016610dd357505090565b610ddd9250610c70565b90565b84829693960291820485141715610e02578101809111610e0257925f80610da6565b634e487b7160e01b5f52601160045260245ffd5b9092506020813d602011610e42575b81610e32602093836108ba565b810103126101775751915f610d99565b3d9150610e25565b5f546001600160a01b03163303610e5d57565b60405163118cdaa760e01b8152336004820152602490fdfe8be0079c531659141344cd1fd0a4f28419497f9722a3daafe3b4186f6b6457e00d7f9b2189b7c65105ca51e925f5e6e3d3692be0e69c19bf382bd7e448777839a2646970667358221220ff3cf94a8c9ee57f2acbda819ad7e7cc2958856affbe366642623fb373e7ddcc64736f6c63430008180033000000000000000000000000eda52212b4be0eb74aef879e714e4f722ea263a0000000000000000000000000000000000000000000000000000000000000002500000000000000000000000000000000000000000000000000000000000000000000000000000000000000000000000000000000000000001bc16d674ec80000000000000000000000000000000000000000000000000000000000000000000000000000000000000000000062b8b11039fcfe5ab0c56e502b1c372a3d2a9c7a000000000000000000000000993461bbf7e553eb5bd1f5248a72b524c4a3b15d000000000000000000000000c0634fef512274913fde3f086ffa71987be82957"
        }
      ],
      "isFixedGasLimit": false
    }
  ],
  "receipts": [
    {
      "status": "0x1",
      "cumulativeGasUsed": "0x21d794",
      "logs": [],
      "logsBloom": "0x00000000000000000000000000000000000000000000000000000000000000000000000000000000000000000000000000000000000000000000000000000000000000000000000000000000000000000000000000000000000000000000000000000000000000000000000000000000000000000000000000000000000000000000000000000000000000000000000000000000000000000000000000000000000000000000000000000000000000000000000000000000000000000000000000000000000000000000000000000000000000000000000000000000000000000000000000000000000000000000000000000000000000000000000000000000",
      "type": "0x0",
      "transactionHash": "0x99cda58517bbb8f1cc05c3ff1c49362988d15f476eef5a5aaa74fea7643d498e",
      "transactionIndex": "0x7",
      "blockHash": "0x5af2c7bdad02d1d3e23b72b019c20b72b9ebf45d6b79de75e0205decef848e2d",
      "blockNumber": "0x2b971be",
      "gasUsed": "0x1eccb",
      "effectiveGasPrice": "0x5d22cfc40",
      "from": "0x993461bbf7e553eb5bd1f5248a72b524c4a3b15d",
      "to": null,
      "contractAddress": "0xc0634fef512274913fde3f086ffa71987be82957",
      "l1BaseFeeScalar": "0x0",
      "l1BlobBaseFee": "0x1",
      "l1BlobBaseFeeScalar": "0x0",
      "l1Fee": "0x0",
      "l1GasPrice": "0x2e31a0b8",
      "l1GasUsed": "0x149a"
    },
    {
      "status": "0x1",
      "cumulativeGasUsed": "0x183898",
      "logs": [
        {
          "address": "0x4ddec2e353beec7696636741439c2804886446c0",
          "topics": [
            "0x8be0079c531659141344cd1fd0a4f28419497f9722a3daafe3b4186f6b6457e0",
            "0x0000000000000000000000000000000000000000000000000000000000000000",
            "0x000000000000000000000000993461bbf7e553eb5bd1f5248a72b524c4a3b15d"
          ],
          "data": "0x",
          "blockHash": "0x6b1e015a7fd0b03faea5d7d5bd3b2d8a9c00e9d76b7d605f41ae49f0d57c49cb",
          "blockNumber": "0x2b971bf",
          "transactionHash": "0xf2d6569f2ce4fab47e8c32006f645fdb9d8c0cab41270de5be9f459afc37bf21",
          "transactionIndex": "0x5",
          "logIndex": "0xd",
          "removed": false
        },
        {
          "address": "0x4ddec2e353beec7696636741439c2804886446c0",
          "topics": [
            "0x293c0278ff20b67408bf7a8e537f517e4acd426e297424345e0dac1bf3b853e5"
          ],
          "data": "0x000000000000000000000000eda52212b4be0eb74aef879e714e4f722ea263a0000000000000000000000000000000000000000000000000000000000000002500000000000000000000000000000000000000000000000000000000000000000000000000000000000000000000000000000000000000001bc16d674ec8000000000000000000000000000062b8b11039fcfe5ab0c56e502b1c372a3d2a9c7a0000000000000000000000006bc0db897d678bf5c49e8cd6639d4bd7e4e93763",
          "blockHash": "0x6b1e015a7fd0b03faea5d7d5bd3b2d8a9c00e9d76b7d605f41ae49f0d57c49cb",
          "blockNumber": "0x2b971bf",
          "transactionHash": "0xf2d6569f2ce4fab47e8c32006f645fdb9d8c0cab41270de5be9f459afc37bf21",
          "transactionIndex": "0x5",
          "logIndex": "0xe",
          "removed": false
        },
        {
          "address": "0x62b8b11039fcfe5ab0c56e502b1c372a3d2a9c7a",
          "topics": [
            "0x06b541ddaa720db2b10a4d0cdac39b8d360425fc073085fac19bc82614677987",
            "0x0000000000000000000000006bc0db897d678bf5c49e8cd6639d4bd7e4e93763",
            "0x000000000000000000000000993461bbf7e553eb5bd1f5248a72b524c4a3b15d",
            "0x0000000000000000000000004ddec2e353beec7696636741439c2804886446c0"
          ],
          "data": "0x00000000000000000000000000000000000000000000000000000000000000000000000000000000000000000000000000000000000000000000000000000060000000000000000000000000000000000000000000000000000000000000008000000000000000000000000000000000000000000000000000000000000000000000000000000000000000000000000000000000000000000000000000000000",
          "blockHash": "0x6b1e015a7fd0b03faea5d7d5bd3b2d8a9c00e9d76b7d605f41ae49f0d57c49cb",
          "blockNumber": "0x2b971bf",
          "transactionHash": "0xf2d6569f2ce4fab47e8c32006f645fdb9d8c0cab41270de5be9f459afc37bf21",
          "transactionIndex": "0x5",
          "logIndex": "0xf",
          "removed": false
        },
        {
          "address": "0x62b8b11039fcfe5ab0c56e502b1c372a3d2a9c7a",
          "topics": [
            "0xddf252ad1be2c89b69c2b068fc378daa952ba7f163c4a11628f55a4df523b3ef",
            "0x000000000000000000000000993461bbf7e553eb5bd1f5248a72b524c4a3b15d",
            "0x0000000000000000000000004ddec2e353beec7696636741439c2804886446c0"
          ],
          "data": "0x0000000000000000000000000000000000000000000000000000000000000000",
          "blockHash": "0x6b1e015a7fd0b03faea5d7d5bd3b2d8a9c00e9d76b7d605f41ae49f0d57c49cb",
          "blockNumber": "0x2b971bf",
          "transactionHash": "0xf2d6569f2ce4fab47e8c32006f645fdb9d8c0cab41270de5be9f459afc37bf21",
          "transactionIndex": "0x5",
          "logIndex": "0x10",
          "removed": false
        },
        {
          "address": "0x62b8b11039fcfe5ab0c56e502b1c372a3d2a9c7a",
          "topics": [
            "0x8c5be1e5ebec7d5bd14f71427d1e84f3dd0314c0f7b2291e5b200ac8c7c3b925",
            "0x000000000000000000000000993461bbf7e553eb5bd1f5248a72b524c4a3b15d",
            "0x0000000000000000000000006bc0db897d678bf5c49e8cd6639d4bd7e4e93763"
          ],
          "data": "0x0000000000000000000000000000000000000000000000000000000000000000",
          "blockHash": "0x6b1e015a7fd0b03faea5d7d5bd3b2d8a9c00e9d76b7d605f41ae49f0d57c49cb",
          "blockNumber": "0x2b971bf",
          "transactionHash": "0xf2d6569f2ce4fab47e8c32006f645fdb9d8c0cab41270de5be9f459afc37bf21",
          "transactionIndex": "0x5",
          "logIndex": "0x11",
          "removed": false
        },
        {
          "address": "0x6bc0db897d678bf5c49e8cd6639d4bd7e4e93763",
          "topics": [
            "0xebbf90e5ab3ed850195da91e9ed05a4977f90a2cb4e29db22ca570f8555cd33f"
          ],
          "data": "0x00000000000000000000000000000000000000000000000000000000000000250000000000000000000000004ddec2e353beec7696636741439c2804886446c000000000000000000000000000000000000000000000000000000000000000000000000000000000000000000000000000000000000000001bc16d674ec80000000000000000000000000000000000000000000000000000000000000000000000000000000000000000000062b8b11039fcfe5ab0c56e502b1c372a3d2a9c7a",
          "blockHash": "0x6b1e015a7fd0b03faea5d7d5bd3b2d8a9c00e9d76b7d605f41ae49f0d57c49cb",
          "blockNumber": "0x2b971bf",
          "transactionHash": "0xf2d6569f2ce4fab47e8c32006f645fdb9d8c0cab41270de5be9f459afc37bf21",
          "transactionIndex": "0x5",
          "logIndex": "0x12",
          "removed": false
        }
      ],
      "logsBloom": "0x00000000000000000000000000000000000000001000000000800000000080000000800008000000000040000000000000000000000400000000000000200200000000400004000000000008000000000001088000100000000000000000000000000000020000040000000000000800000000400000000000000010000000608000000000001080000000000000000008008000000000000000000000000000020000002100000000000000000020000000000000000000000000000080000000000002000000000000000000000000000080000000000000002000000020000010000000000000000000000000000000000000000000000000000000000000",
      "type": "0x0",
      "transactionHash": "0xf2d6569f2ce4fab47e8c32006f645fdb9d8c0cab41270de5be9f459afc37bf21",
      "transactionIndex": "0x5",
      "blockHash": "0x6b1e015a7fd0b03faea5d7d5bd3b2d8a9c00e9d76b7d605f41ae49f0d57c49cb",
      "blockNumber": "0x2b971bf",
      "gasUsed": "0x121960",
      "effectiveGasPrice": "0x5d22cfc40",
      "from": "0x993461bbf7e553eb5bd1f5248a72b524c4a3b15d",
      "to": "0x6bc0db897d678bf5c49e8cd6639d4bd7e4e93763",
      "contractAddress": null,
      "l1BaseFeeScalar": "0x0",
      "l1BlobBaseFee": "0x1",
      "l1BlobBaseFeeScalar": "0x0",
      "l1Fee": "0x0",
      "l1GasPrice": "0x2e31a0b8",
      "l1GasUsed": "0x71d"
    }
  ],
  "libraries": [],
  "pending": [],
  "returns": {
    "0": {
      "internal_type": "address",
      "value": "0xc0634fEF512274913fDE3F086fFA71987bE82957"
    }
  },
  "timestamp": 1757608470,
  "chain": 42220,
  "commit": "508e6e7"
}